C51 COMPILER V9.50a   DRV_USART0                                                           08/22/2018 15:12:09 PAGE 1   


C51 COMPILER V9.50a, COMPILATION OF MODULE DRV_USART0
OBJECT MODULE PLACED IN .\Output\DRV_usart0.obj
COMPILER INVOKED BY: C:\Keil\C51\BIN\C51.EXE ..\UserDrv\DRV_usart0.c LARGE BROWSE INCDIR(..\..\Include;..\UserInc;..\Use
                    -rDrv;..\UserApp) DEFINE(FOSC_160000) DEBUG OBJECTEXTEND PRINT(.\LST\DRV_usart0.lst) TABS(2) OBJECT(.\Output\DRV_usart0.o
                    -bj)

line level    source

   1          /****************************************************************************************
   2            Copyright (C), 1988-1999, Huawei Tech. Co., Ltd.
   3            File name:      usart.c
   4            Author:         Harvard
   5            Version:        0.0
   6            Date:     20070620
   7            Description:  完成串行口的初始化，设置，提供单字节的发送接收
   8            History: 
   9            ----------------------------------------------------------------------------------------    
  10            1. Date:    20070622
  11               Author:  XXJ
  12               Modification:
  13                  t1.5与t3.5采用固定间隔代替，分别为3
  14            2. ...
  15            ----------------------------------------------------------------------------------------    
  16            1. Date:    2016-03-03
  17               Author:  Shine
  18               Abstract: - 升级串口初始化函数,改串口晶振为外部12MHZ,波特率范围从4800-115200bps
  19                         - 串口初始化i函数的参数从16bit升级到32bit
  20            
  21          *****************************************************************************************/
  22          #include "config.h"
  23          
  24          
  25           u16  _crc16_update(u16 crc, u08 a)
  26          {
  27   1        int i;
  28   1        crc ^= a;
  29   1        for (i = 0; i < 8; ++i)
  30   1        {
  31   2            if (crc & 1)
  32   2          crc = (crc >> 1) ^ 0xA001;
  33   2            else
  34   2          crc = (crc >> 1);
  35   2        }
  36   1        return crc;
  37   1      } 
  38          
  39          /*
  40          ** 串行口初始化
  41          ** baudrate取值为: 4800 9600 19200
  42          */
  43          
  44          void usart_init(u32 baudrate)
  45          {
  46   1          /* 根据实际需要,选择不同的定时器作为波特率发生器 */
  47   1          InitialUART0_Timer3(baudrate);
  48   1          /* 将485引脚置为接收状态 */
  49   1          TXD_EN = 0;
  50   1          /* 使能串口中断0*/
  51   1          set_ES;
  52   1      }
  53          
C51 COMPILER V9.50a   DRV_USART0                                                           08/22/2018 15:12:09 PAGE 2   

  54          void usart_dis_recv(void)
  55          {
  56   1          /* 禁止接收 */
  57   1          TXD_EN =1;
  58   1          /* 关闭串口0中断 ;*/
  59   1          clr_ES; 
  60   1      }
  61          void usart_en_recv (void)
  62          {
  63   1          /* 使能接收引脚*/
  64   1          TXD_EN = 0;
  65   1          /* 打开串口中断*/
  66   1          set_ES;
  67   1      }
  68          
  69          /*超时定时器初始化及其开关控制*/
  70          #define T2_TICK_MIN   1000000/(F_CPU/1024)
  71          #define T2_TICK     1000  //1ms
  72          #define TIMER2_BGN_VAL   (255-T2_TICK/T2_TICK_MIN)
  73          
  74          //static u08 CNT_t15=0;             //1.5字符时间
  75          //static u08 CNT_t35=0;             //3.5字符时间
  76          static  u08 SYS_cnt_frame   =0;       //时间间隔计数器，用于1.5 和3.5字符时间判断
  77                  u08 SYS_t2_on       = OFF ;     //用于1.5 3.5字符判断的软定时器 开关. 
  78          
  79          
  80          
  81          void timer2_on(void)
  82          {
  83   1          
  84   1          SYS_cnt_frame = 0 ;
  85   1          SYS_t2_on = ON;
  86   1      }
  87          void timer2_off(void)
  88          {
  89   1          SYS_t2_on = OFF;
  90   1          /** 帧间隔控制 */
  91   1          SYS_cnt_frame = 0;
  92   1      //    CNT_t15= 0;
  93   1      //    CNT_t35= 0;
  94   1      }
  95          
  96          /**
  97           * @brief       Timer-2 IRQ
  98           *
  99           * @param       None
 100           *
 101           * @return      None
 102           *
 103           * @details     The TIMER2 default IRQ, declared in startup_M051Series.s.
 104           */
 105           void Timer2_ISR (void) interrupt 3 
 106          {
 107   1          //////////////////////////////////////////////--重新加载定时器初值
 108   1           /* 给TIMER 赋初值 
 109   1           ** 定时器时钟为:16MHZ/12= 4/3MHZ
 110   1           ** 定时器tick为: 1/ (4/3MHZ) = 3/4us = 0.75uS
 111   1           ** 定时器要定时1ms:
 112   1           ** 定时器初值为: 1000us/0.75uS = 1333
 113   1           */
 114   1          TH1 = (65535-1333)/256;
 115   1          TL1 = (65535-1333)%256;    
C51 COMPILER V9.50a   DRV_USART0                                                           08/22/2018 15:12:09 PAGE 3   

 116   1      
 117   1      
 118   1          /* 如果定时器打开 */
 119   1          if( SYS_t2_on == ON )
 120   1         {
 121   2      
 122   2                SYS_cnt_frame++;
 123   2                
 124   2                if ( SYS_cnt_frame > T35)  //a frame was finished
 125   2                {
 126   3                     usart_dis_recv();    //禁止接收中断
 127   3      
 128   3                     timer2_off ()    ;   //tunr off timer;
 129   3      
 130   3                     SYS_cnt_frame = 0 ;   //reset timer
 131   3      
 132   3                     RxBufPtr--;       //调整指针   
 133   3      
 134   3                     fFrameDone    = OK;   //frame is completed 
 135   3                 }       
 136   2          }
 137   1          /* 定时器关,还未进行帧间隔判断 */
 138   1         else
 139   1         {
 140   2              SYS_cnt_frame = 0;
 141   2         }
 142   1         
 143   1      }
 144          
 145          
 146          
 147          u08 RxBuf[MAX_BUF_LEN]={0,1,2,3,4};
 148          u08 TxBuf[MAX_BUF_LEN];
 149          u08 RxBufPtr  = RX_BUF_BGN_ADR;
 150          u08 TxBufPtr  = TX_BUF_BGN_ADR;
 151          BOOL fIsRXING = NO;          //is receiving now
 152          BOOL fIsTXING = NO;          //is transsending now
 153          BOOL fRxBufFull = NO;
 154          BOOL fTxBufFull = NO;
 155          BOOL fFrameDone = NO;      //one frame finished 
 156          BOOL fFrameBad  = NO;      //frame was broken
 157          u16  CRC    = 0xFFFF;    //CRC初始值  
 158          
 159          
 160          /*接收中断*/
 161          void UART0_IRQHandler( void ) interrupt 4
 162          {
 163   1          /* 1 - 接收中断处理 */ 
 164   1          if ( RI==1 ) 
 165   1          {                                       /* if reception occur                       */
 166   2              clr_RI;                             /* clear reception flag for next reception  */
 167   2      
 168   2              /* Rx trigger level is 1 byte*/    
 169   2             RxBuf[RxBufPtr] = SBUF;
 170   2      
 171   2              /* reset timer */
 172   2             SYS_cnt_frame = 0 ;   
 173   2      
 174   2              /*new frame coming*/ 
 175   2              if( RxBufPtr == RX_BUF_BGN_ADR )//新的一帧开始
 176   2              {
 177   3                  CRC = 0xffff  ;             //准备crc计算，
C51 COMPILER V9.50a   DRV_USART0                                                           08/22/2018 15:12:09 PAGE 4   

 178   3      
 179   3                  timer2_on();                    //开启定时器计时
 180   3              }
 181   2      
 182   2              /*with a frame and RxBuf is not full*/
 183   2              /*when we detect a frame was borken according to t15 ,
 184   2              * we keep on receiving in order to synchronize the frame  
 185   2              */
 186   2              else if
 187   2                ( RxBufPtr < MAX_BUF_LEN -1)
 188   2              {  
 189   3                  if ( SYS_cnt_frame > T15 && SYS_cnt_frame < T35 ) 
 190   3                  {
 191   4                       SYS_cnt_frame = 0 ;   //reset timer
 192   4                  
 193   4                       fFrameBad     = TRUE; //frame is broken 
 194   4                  }
 195   3              }
 196   2      
 197   2              /*RxBuf full */
 198   2              /* 
 199   2              **
 200   2              */
 201   2              else if( RxBufPtr >= MAX_BUF_LEN -1)
 202   2              {
 203   3                  usart_dis_recv()    ;      //stop receving
 204   3              
 205   3                  timer2_off ()     ;            //tunr off timer;
 206   3      
 207   3                  fRxBufFull    = YES ;            //缓冲区已满
 208   3                 
 209   3                  fFrameBad     = TRUE;            //frame is broken 
 210   3                 
 211   3                  RxBufPtr --;                 //指针保持不变，防止破坏其他数据区
 212   3              } 
 213   2                  CRC = _crc16_update( CRC,RxBuf[RxBufPtr] );
 214   2      
 215   2                  RxBufPtr++;           //adjust pointer
 216   2          }//end while
 217   1      
 218   1          /* 2 - 发送标记处理 */ 
 219   1          if(TI==1)
 220   1          {
 221   2              clr_TI;                             /* if emission occur */
 222   2          }
 223   1      }
 224          
 225          /*查询发送*/
 226          void usart_send_byte( u08 txbyte )
 227          {
 228   1          TXD_EN      =1;
 229   1          WORK_LED    =0;
 230   1          /* 向串口写入1字节   */
 231   1          Send_Data_To_UART0( txbyte );
 232   1          /* 等待1字节传输完毕 */
 233   1          TXD_EN      =0;
 234   1          WORK_LED    =1;
 235   1      }
 236          
 237          
 238           
 239          
C51 COMPILER V9.50a   DRV_USART0                                                           08/22/2018 15:12:09 PAGE 5   

 240          
 241          
 242          
 243          
 244          
 245           


MODULE INFORMATION:   STATIC OVERLAYABLE
   CODE SIZE        =    357    ----
   CONSTANT SIZE    =   ----    ----
   XDATA SIZE       =     92    ----
   PDATA SIZE       =   ----    ----
   DATA SIZE        =   ----    ----
   IDATA SIZE       =   ----    ----
   BIT SIZE         =   ----    ----
END OF MODULE INFORMATION.


C51 COMPILATION COMPLETE.  0 WARNING(S),  0 ERROR(S)
